:020000040000FA
:0400000010EF00F00D
:020004000000FA
:10002000030E956E620ED36E9594936AC80ED56ECC
:1000300083A020EF00F083A24BEF00F05EEF00F012
:1000400083A225EF00F038EF00F08C843F0E8A6E1B
:10005000D586060ED66EF29463EC00F08C94C10E39
:10006000D56E450ED66EF29463EC00F018EF00F0FA
:100070008C84060E8A6ED5866A0ED66EF29463EC78
:1000800000F08C94C00ED56E450ED66EF29463ECE3
:1000900000F018EF00F08C845B0E8A6EC10ED56EF6
:1000A000450ED66EF29463EC00F08C94D586060E65
:1000B000D66EF29463EC00F018EF00F08C844F0ED3
:0E00C0008A6E18EF00F0F2A463EF00F0120059
:020000040030CA
:0100010008F6
:0100020018E5
:010003001EDE
:010005008179
:010006008178
:00000001FF
